:060000000A128A11FC2F18
:10092400C030831603139F000930831203139F0002
:100934000800831203139715171512149210121539
:1009440083160313071108007808F0007908F100F2
:10095400F2018E30FB007B08F300F4010A128A11C5
:10096400D3247008F8007108F9007208FA0008002E
:10097400831203139712701CC32C831203131716CC
:10098400C62C8312031317127108F3007008F200C7
:10099400730DF30CF20C730DF30CF20C720895004A
:1009A400080073080319DB2C720871047004031D1A
:1009B400EE2C0030F0000030F1000030F2000800AE
:1009C4000130F5007508F30701300310F20CF10C47
:1009D400F00CFF3E031DE72CFE3072050319092DB0
:1009E400E22C0130F5007508F3070130F007003000
:1009F40003180130F107003003180130F207013009
:100A04000310F20CF10CF00CFF3E031D022DFF301D
:100A140072050319182DF32C0130F3020130031071
:100A2400F00DF10DF20DFF3E031D112DF11B1E2DD6
:100A34000230730203180E2D7318262DFF30F005B3
:100A44007F30F105FF30F2050310F30C7308F50055
:100A5400F601F70110300310F50DF60DF70DFF3E0A
:100A6400031D2D2D7508F0047608F1047708F204AF
:100A7400740803190800F2170800831203134008CE
:100A8400C4004108C5004208C6000310450D460DC8
:100A9400C7004708CD004D08031D592D0030C30081
:100AA4000030C2000030C1000030C000080040081F
:100AB400C4004108C5004208C60017300310C60C24
:100AC400C50CC40CFF3E031D602D4408C700470835
:100AD400C800C117FF30C005FF30C1050030C20592
:100AE4004008C9004108CA004208CB00CC018E303E
:100AF400CD02CD1F9B2D4D08803A8F3E03188B2DC0
:100B04000030C3000030C2000030C1000030C0001B
:100B1400080001300310CC0CCB0CCA0CC90CFF3EEE
:100B2400031D8C2D0130C4004408CD070319B62DD4
:100B34008B2D18304D02031CB32D0030C300003040
:100B4400C2000030C1000030C00008000130C40001
:100B54000310C90DCA0DCB0DCC0DC40BAA2D013049
:100B6400CD024D08031DA82D48080319C42DC90939
:100B7400CA09CB09CC09C90A0319CA0A0319CB0A41
:100B84000319CC0A4C08C3004B08C2004A08C10030
:100B94004908C000080083120313D301D401F930BB
:100BA4008316031392000030F000F1000A128A1138
:100BB400BA240A128A110A128A119B240A128A116F
:100BC400FF308316031385000A128A1192240A1235
:100BD4008A11831203131F151F19EE2D1E08D2004C
:100BE400831603131E0883120313D100F930A000E7
:100BF4009F30A1003B30A2005208F9005108F800D0
:100C04000A128A11A6240A128A117808831203137D
:100C1400A3007908A4007A08A5000A128A112927DA
:100C24000A128A11831203132008CE002108CF0070
:100C34002208D0004E08A3004F08A4005008A500C5
:100C44000030A0007A30A1004430A2000A128A11B8
:100C540029270A128A11831203132008B3002108DA
:100C6400B4002208B5000030B000A030B10040301C
:100C7400B2000A128A1171260A128A11831203130E
:100C84003008C0003108C1003208C2000A128A11BB
:100C94003F250A128A11831203134108D400400825
:100CA400D3000030540250300319530203185C2E51
:100CB400D301D40103305402A33003195302031C9B
:100CC400672EE830D3000330D4005408F1005308F1
:100CD400F0000A128A11BA240A128A11EB2D831227
:100CE40003133308B6003408B7003508B8000310FE
:100CF400370D380DB9003908BE003E08031D892E92
:100D04000030B0000030B1000030B20008003008FC
:100D1400B6003108B7003208B8000310370D380D9B
:100D2400B9003908BF003F08031D9F2E0030B000F2
:100D34000030B1000030B20008000030BB000030C9
:100D4400BC000030BD0089303F07B6003608BE0243
:100D54003308B6003408B7003508B8001030031063
:100D6400B80CB70CB60CFF3E031DB12E3608B90003
:100D74003908BF003008B6003108B7003208B8009F
:100D840010300310B80CB70CB60CFF3E031DC32E75
:100D94003608B9003908BF068030B6003608BF05EA
:100DA400B417FF30B305FF30B4050030B505B117F3
:100DB400FF30B005FF30B1050030B2051830B60081
:100DC4003608BA0001300310BB0DBC0DBD0DFF3E4B
:100DD400031DE52E32083502031DF62E31083402B8
:100DE400031DF62E30083302031C032F3008B30210
:100DF4003108031C310FB4023208031C320AB50255
:100E04003B1401300310B30DB40DB50DFF3E031DAB
:100E1400042F0130BA02031DE42E3B08F0003C0805
:100E2400F1003D08F2003E08B6003608F3003F0822
:100E3400B7003708F4000A128A11D3247008831209
:100E44000313B0007108B1007208B20008008312E5
:100E540003132008A6002108A7002208A8000310F5
:100E6400270D280DA9002908AA002A08031D412FCF
:100E74000030A0000030A1000030A20008002308C8
:100E8400A6002408A7002508A8000310270D280D94
:100E9400A9002908AF002F08031D572F0030A00018
:100EA4000030A1000030A20008002F087B3EA600FD
:100EB4002608AA072008A6002108A7002208A800DF
:100EC40010300310A80CA70CA60CFF3E031D632FC3
:100ED4002608A9002908AF002308A6002408A700B3
:100EE4002508A80010300310A80CA70CA60CFF3E80
:100EF400031D752F2608A9002908AF068030A60017
:100F04002608AF05A117A417FF30A305FF30A405D9
:100F14000030A5050030AB000030AC000030AD005F
:100F24000730A6002608AE00201CA62F2308AB0716
:100F3400240803110318240A031DAC072508031110
:100F44000318250A031DAD0701300310A20CA10CE0
:100F5400A00CFF3E031DA72F01300310A30DA40D09
:100F6400A50DFF3E031DAF2F0130AE02031D962FCA
:100F74000930A6002608AE00201CCE2F2308AB079C
:100F8400240803110318240A031DAC0725080311C0
:100F94000318250A031DAD0701300310A20CA10C90
:100FA400A00CFF3E031DCF2F01300310AD0CAC0C81
:100FB400AB0CFF3E031DD72F0130AE02031DBE2F25
:100FC4002B08F0002C08F1002D08F2002A08A600D6
:100FD4002608F3002F08A7002708F4000A128A1134
:100FE400D324700883120313A0007108A1007208AF
:0C0FF400A200080083010A128A11CD2D12
:02400E00393F38
:00000001FF
